{
  "_format": "hh-sol-artifact-1",
  "contractName": "Roulette",
  "sourceName": "contracts/Roulette.sol",
  "abi": [
    {
      "inputs": [],
      "stateMutability": "nonpayable",
      "type": "constructor"
    },
    {
      "anonymous": false,
      "inputs": [
        {
          "indexed": true,
          "internalType": "address",
          "name": "user",
          "type": "address"
        },
        {
          "indexed": false,
          "internalType": "uint256",
          "name": "newBalance",
          "type": "uint256"
        }
      ],
      "name": "BalanceUpdated",
      "type": "event"
    },
    {
      "anonymous": false,
      "inputs": [
        {
          "indexed": true,
          "internalType": "address",
          "name": "user",
          "type": "address"
        },
        {
          "indexed": false,
          "internalType": "uint256",
          "name": "amount",
          "type": "uint256"
        }
      ],
      "name": "FaucetClaimed",
      "type": "event"
    },
    {
      "anonymous": false,
      "inputs": [
        {
          "indexed": true,
          "internalType": "address",
          "name": "user",
          "type": "address"
        },
        {
          "indexed": false,
          "internalType": "uint256",
          "name": "winningNumber",
          "type": "uint256"
        },
        {
          "indexed": false,
          "internalType": "uint256",
          "name": "winnings",
          "type": "uint256"
        },
        {
          "indexed": false,
          "internalType": "uint256",
          "name": "newBalance",
          "type": "uint256"
        }
      ],
      "name": "GamePlayed",
      "type": "event"
    },
    {
      "inputs": [
        {
          "internalType": "address",
          "name": "user",
          "type": "address"
        }
      ],
      "name": "getBalance",
      "outputs": [
        {
          "internalType": "uint256",
          "name": "",
          "type": "uint256"
        }
      ],
      "stateMutability": "view",
      "type": "function"
    },
    {
      "inputs": [
        {
          "internalType": "address",
          "name": "user",
          "type": "address"
        }
      ],
      "name": "getNextClaimTime",
      "outputs": [
        {
          "internalType": "uint256",
          "name": "",
          "type": "uint256"
        }
      ],
      "stateMutability": "view",
      "type": "function"
    },
    {
      "inputs": [],
      "name": "mintDemoBalance",
      "outputs": [],
      "stateMutability": "nonpayable",
      "type": "function"
    },
    {
      "inputs": [],
      "name": "owner",
      "outputs": [
        {
          "internalType": "address",
          "name": "",
          "type": "address"
        }
      ],
      "stateMutability": "view",
      "type": "function"
    },
    {
      "inputs": [
        {
          "components": [
            {
              "internalType": "uint256",
              "name": "id",
              "type": "uint256"
            },
            {
              "internalType": "uint256",
              "name": "amount",
              "type": "uint256"
            }
          ],
          "internalType": "struct Roulette.BetInput[]",
          "name": "_activeBets",
          "type": "tuple[]"
        }
      ],
      "name": "play",
      "outputs": [],
      "stateMutability": "nonpayable",
      "type": "function"
    }
  ],
  "bytecode": "0x608060405234801561001057600080fd5b50600280546001600160a01b03191633179055610e94806100326000396000f3fe608060405234801561001057600080fd5b50600436106100575760003560e01c80634e0d9a5d1461005c578063865d91b5146100665780638da5cb5b1461007957806393c30c0f146100a9578063f8b2cb4f146100ca575b600080fd5b6100646100f3565b005b610064610074366004610d35565b61021b565b60025461008c906001600160a01b031681565b6040516001600160a01b0390911681526020015b60405180910390f35b6100bc6100b7366004610daa565b6104fa565b6040519081526020016100a0565b6100bc6100d8366004610daa565b6001600160a01b031660009081526020819052604090205490565b3360009081526001602052604090205462015180906101129042610de9565b10156101655760405162461bcd60e51b815260206004820152601a60248201527f5761697420323468206265666f7265206e65787420636c61696d00000000000060448201526064015b60405180910390fd5b336000908152602081905260408120805460649290610185908490610dfc565b90915550503360008181526001602052604090819020429055517f5d4f415c63cd8a5874d9d291cdd64cec37e5dc236d90d659c958d109d78074b3906101cf906064815260200190565b60405180910390a233600081815260208181526040918290205491519182527f8ad64a0ac7700dd8425ab0499f107cb6e2cd1581d803c5b8c1c79dcb8190b1af910160405180910390a2565b6000805b828110156102c357600084848381811061023b5761023b610e0f565b90506040020160200135116102925760405162461bcd60e51b815260206004820152601b60248201527f42657420616d6f756e74206d75737420626520706f7369746976650000000000604482015260640161015c565b8383828181106102a4576102a4610e0f565b90506040020160200135826102b99190610dfc565b915060010161021f565b50600081116103055760405162461bcd60e51b815260206004820152600e60248201526d139bc818995d1cc81c1b1858d95960921b604482015260640161015c565b3360009081526020819052604090205481111561035b5760405162461bcd60e51b8152602060048201526014602482015273496e73756666696369656e742062616c616e636560601b604482015260640161015c565b336000908152602081905260408120805483929061037a908490610de9565b9091555050604080514260208201526bffffffffffffffffffffffff193360601b16918101919091524460548201526000906025906074016040516020818303038152906040528051906020012060001c6103d59190610e25565b90506000805b84811015610438576104248686838181106103f8576103f8610e0f565b9050604002016000013587878481811061041457610414610e0f565b9050604002016020013585610567565b61042e9083610dfc565b91506001016103db565b50801561046457336000908152602081905260408120805483929061045e908490610dfc565b90915550505b33600081815260208181526040918290205482518681529182018590528183015290517fa99b776cf5025c68da32d25f20ab3b86fc3e832ba6976f31b879627dcfdd448e9181900360600190a233600081815260208181526040918290205491519182527f8ad64a0ac7700dd8425ab0499f107cb6e2cd1581d803c5b8c1c79dcb8190b1af910160405180910390a25050505050565b6001600160a01b0381166000908152600160205260408120546105209062015180610dfc565b42111561052f57506000919050565b6001600160a01b03821660009081526001602052604090205442906105579062015180610dfc565b6105619190610de9565b92915050565b60008080600186148015610579575083155b156105875760249150610ba0565b8560021480156105975750836003145b156105a55760249150610ba0565b8560031480156105b55750836006145b156105c35760249150610ba0565b8560041480156105d35750836009145b156105e15760249150610ba0565b8560051480156105f1575083600c145b156105ff5760249150610ba0565b85600614801561060f575083600f145b1561061d5760249150610ba0565b85600714801561062d5750836012145b1561063b5760249150610ba0565b85600814801561064b5750836015145b156106595760249150610ba0565b8560091480156106695750836018145b156106775760249150610ba0565b85600a148015610687575083601b145b156106955760249150610ba0565b85600b1480156106a5575083601e145b156106b35760249150610ba0565b85600c1480156106c35750836021145b156106d15760249150610ba0565b85600d1480156106e15750836024145b156106ef5760249150610ba0565b85600f1480156106ff5750836002145b1561070d5760249150610ba0565b85601014801561071d5750836005145b1561072b5760249150610ba0565b85601114801561073b5750836008145b156107495760249150610ba0565b856012148015610759575083600b145b156107675760249150610ba0565b856013148015610777575083600e145b156107855760249150610ba0565b8560141480156107955750836011145b156107a35760249150610ba0565b8560151480156107b35750836014145b156107c15760249150610ba0565b8560161480156107d15750836017145b156107df5760249150610ba0565b8560171480156107ef575083601a145b156107fd5760249150610ba0565b85601814801561080d575083601d145b1561081b5760249150610ba0565b85601914801561082b5750836020145b156108395760249150610ba0565b85601a1480156108495750836023145b156108575760249150610ba0565b85601c1480156108675750836001145b156108755760249150610ba0565b85601d1480156108855750836004145b156108935760249150610ba0565b85601e1480156108a35750836007145b156108b15760249150610ba0565b85601f1480156108c1575083600a145b156108cf5760249150610ba0565b8560201480156108df575083600d145b156108ed5760249150610ba0565b8560211480156108fd5750836010145b1561090b5760249150610ba0565b85602214801561091b5750836013145b156109295760249150610ba0565b8560231480156109395750836016145b156109475760249150610ba0565b8560241480156109575750836019145b156109655760249150610ba0565b856025148015610975575083601c145b156109835760249150610ba0565b856026148015610993575083601f145b156109a15760249150610ba0565b8560271480156109b15750836022145b156109bf5760249150610ba0565b85600e1480156109d557506109d5600385610bd1565b156109e35760039150610ba0565b85601b1480156109f957506109f9600285610bd1565b15610a075760039150610ba0565b856028148015610a1d5750610a1d600185610bd1565b15610a2b5760039150610ba0565b856029148015610a48575060018410158015610a485750600c8411155b15610a565760039150610ba0565b85602a148015610a735750600d8410158015610a73575060188411155b15610a815760039150610ba0565b85602b148015610a9e575060198410158015610a9e575060248411155b15610aac5760039150610ba0565b85602c148015610ac9575060018410158015610ac9575060128411155b15610ad75760029150610ba0565b85602d148015610aeb5750610aeb84610c41565b15610af95760029150610ba0565b85602e148015610b0d5750610b0d84610c5f565b15610b1b5760029150610ba0565b85602f148015610b315750610b2f84610c5f565b155b8015610b3c57508315155b15610b4a5760029150610ba0565b856030148015610b605750610b5e84610c41565b155b8015610b6b57508315155b15610b795760029150610ba0565b856031148015610b96575060138410158015610b96575060248411155b15610ba057600291505b8115610baa575060015b8015610bc357610bba8286610e47565b92505050610bca565b6000925050505b9392505050565b600081600003610be357506000610561565b82600103610c0057610bf6600383610e25565b6001149050610561565b82600203610c1d57610c13600383610e25565b6002149050610561565b82600303610c3857610c30600383610e25565b159050610561565b50600092915050565b600081158015906105615750610c58600283610e25565b1592915050565b60008160011480610c705750816003145b80610c7b5750816005145b80610c865750816007145b80610c915750816009145b80610c9c575081600c145b80610ca7575081600e145b80610cb25750816010145b80610cbd5750816012145b80610cc85750816013145b80610cd35750816015145b80610cde5750816017145b80610ce95750816019145b80610cf4575081601b145b80610cff575081601e145b80610d0a5750816020145b80610d155750816022145b80610d205750816024145b15610d2d57506001919050565b506000919050565b60008060208385031215610d4857600080fd5b823567ffffffffffffffff80821115610d6057600080fd5b818501915085601f830112610d7457600080fd5b813581811115610d8357600080fd5b8660208260061b8501011115610d9857600080fd5b60209290920196919550909350505050565b600060208284031215610dbc57600080fd5b81356001600160a01b0381168114610bca57600080fd5b634e487b7160e01b600052601160045260246000fd5b8181038181111561056157610561610dd3565b8082018082111561056157610561610dd3565b634e487b7160e01b600052603260045260246000fd5b600082610e4257634e487b7160e01b600052601260045260246000fd5b500690565b808202811582820484141761056157610561610dd356fea2646970667358221220cefcf29c67bd602997027edf2ea2d58e7a8c8fc73915c097f9f3f880f5ff3cdb64736f6c63430008180033",
  "linkReferences": {},
  "deployedLinkReferences": {}
}