{
  "_format": "hh-sol-artifact-1",
  "contractName": "Roulette",
  "sourceName": "contracts/Roulette.sol",
  "abi": [
    {
      "inputs": [],
      "stateMutability": "nonpayable",
      "type": "constructor"
    },
    {
      "anonymous": false,
      "inputs": [
        {
          "indexed": true,
          "internalType": "address",
          "name": "user",
          "type": "address"
        },
        {
          "indexed": false,
          "internalType": "bytes32",
          "name": "balanceHandle",
          "type": "bytes32"
        }
      ],
      "name": "BalanceUpdated",
      "type": "event"
    },
    {
      "anonymous": false,
      "inputs": [
        {
          "indexed": true,
          "internalType": "address",
          "name": "user",
          "type": "address"
        },
        {
          "indexed": false,
          "internalType": "uint256",
          "name": "amountPlain",
          "type": "uint256"
        }
      ],
      "name": "FaucetClaimed",
      "type": "event"
    },
    {
      "anonymous": false,
      "inputs": [
        {
          "indexed": true,
          "internalType": "address",
          "name": "user",
          "type": "address"
        },
        {
          "indexed": false,
          "internalType": "uint256",
          "name": "winningNumber",
          "type": "uint256"
        },
        {
          "indexed": false,
          "internalType": "bytes32",
          "name": "winningsHandle",
          "type": "bytes32"
        },
        {
          "indexed": false,
          "internalType": "bytes32",
          "name": "newBalanceHandle",
          "type": "bytes32"
        }
      ],
      "name": "GamePlayed",
      "type": "event"
    },
    {
      "inputs": [
        {
          "internalType": "address",
          "name": "user",
          "type": "address"
        }
      ],
      "name": "getBalance",
      "outputs": [
        {
          "internalType": "bytes32",
          "name": "",
          "type": "bytes32"
        }
      ],
      "stateMutability": "view",
      "type": "function"
    },
    {
      "inputs": [
        {
          "internalType": "address",
          "name": "user",
          "type": "address"
        }
      ],
      "name": "getNextClaimTime",
      "outputs": [
        {
          "internalType": "uint256",
          "name": "",
          "type": "uint256"
        }
      ],
      "stateMutability": "view",
      "type": "function"
    },
    {
      "inputs": [],
      "name": "mintDemoBalance",
      "outputs": [],
      "stateMutability": "nonpayable",
      "type": "function"
    },
    {
      "inputs": [],
      "name": "owner",
      "outputs": [
        {
          "internalType": "address",
          "name": "",
          "type": "address"
        }
      ],
      "stateMutability": "view",
      "type": "function"
    },
    {
      "inputs": [
        {
          "components": [
            {
              "internalType": "uint256",
              "name": "id",
              "type": "uint256"
            },
            {
              "internalType": "externalEuint64",
              "name": "amount",
              "type": "bytes32"
            }
          ],
          "internalType": "struct Roulette.BetInput[]",
          "name": "_activeBets",
          "type": "tuple[]"
        },
        {
          "internalType": "bytes",
          "name": "attestation",
          "type": "bytes"
        }
      ],
      "name": "play",
      "outputs": [],
      "stateMutability": "nonpayable",
      "type": "function"
    }
  ],
  "bytecode": "0x608060405234801561001057600080fd5b50600380546001600160a01b03191633179055610f11806100326000396000f3fe608060405234801561001057600080fd5b50600436106100575760003560e01c80634e0d9a5d1461005c5780638da5cb5b1461006657806392378f5b1461009657806393c30c0f146100a9578063f8b2cb4f146100ca575b600080fd5b6100646100dd565b005b600354610079906001600160a01b031681565b6040516001600160a01b0390911681526020015b60405180910390f35b6100646100a4366004610c34565b61028c565b6100bc6100b7366004610cf9565b610592565b60405190815260200161008d565b6100bc6100d8366004610cf9565b6105ff565b3360009081526001602052604090205462015180906100fc9042610d38565b101561014f5760405162461bcd60e51b815260206004820152601a60248201527f5761697420323468206265666f7265206e65787420636c61696d00000000000060448201526064015b60405180910390fd5b33600090815260016020526040812042905561016b606461061d565b3360009081526002602052604090205490915060ff16156101b557336000908152602081905260409020546101a09082610634565b336000908152602081905260409020556101db565b3360009081526020818152604080832084905560029091529020805460ff191660011790555b336000818152602081905260409020546101f49161066d565b503360009081526020819052604090205461020f903061066d565b506040516064815233907f5d4f415c63cd8a5874d9d291cdd64cec37e5dc236d90d659c958d109d78074b39060200160405180910390a2336000818152602081905260409020547f82d998d36c5697c9594670c29185df27e06e58d04ac2d937a8cffcbe644799549060405190815260200160405180910390a250565b826102c35760405162461bcd60e51b81526020600482015260076024820152664e6f206265747360c81b6044820152606401610146565b60006102cf600061061d565b905060005b848110156103505760006103398787848181106102f3576102f3610d4b565b9050604002016020013586868080601f01602080910402602001604051908101604052809392919081815260200183838082843760009201919091525061068092505050565b90506103458382610634565b9250506001016102d4565b503360009081526020819052604090205461036a9061068e565b6103a65760405162461bcd60e51b815260206004820152600d60248201526c1058d8d95cdcc819195b9a5959609a1b6044820152606401610146565b336000908152602081905260409020546103c0908261069a565b33600081815260208181526040808320949094559251909260259261040c92429244910192835260609190911b6bffffffffffffffffffffffff19166020830152603482015260540190565b6040516020818303038152906040528051906020012060001c61042f9190610d61565b9050600061043d600061061d565b905060005b868110156104e95760006104a789898481811061046157610461610d4b565b9050604002016020013588888080601f01602080910402602001604051908101604052809392919081815260200183838082843760009201919091525061068092505050565b905060006104d18a8a858181106104c0576104c0610d4b565b9050604002016000013583876106cc565b90506104dd8482610634565b93505050600101610442565b50336000908152602081905260409020546105049082610634565b336000818152602081905260409020829055610520919061066d565b503360009081526020819052604090205461053b903061066d565b5033600081815260208181526040918290205482518681529182018590528183015290517f596716cc3f50053b61842c9dc06f3909b628211e76990b2da72f20b7fd44fb889181900360600190a250505050505050565b6001600160a01b0381166000908152600160205260408120546105b89062015180610d83565b4211156105c757506000919050565b6001600160a01b03821660009081526001602052604090205442906105ef9062015180610d83565b6105f99190610d38565b92915050565b6001600160a01b0381166000908152602081905260408120546105f9565b60006105f98267ffffffffffffffff1660056107fb565b60008261064857610645600061061d565b92505b8161065a57610657600061061d565b91505b61066683836000610890565b9392505050565b60006106798383610944565b5090919050565b6000610666838360056109c1565b60006105f98233610ac6565b6000826106ae576106ab600061061d565b92505b816106c0576106bd600061061d565b91505b61066683836000610b4e565b6000806106d9600061061d565b90508460011480156106e9575082155b1561070857610701846106fc602461061d565b610bb5565b90506107f3565b8460021480156107185750826007145b1561072b57610701846106fc602461061d565b8460031480156107435750610741600284610d61565b155b801561074e57508215155b1561076157610701846106fc600261061d565b84600414801561077b5750610777600284610d61565b6001145b1561078e57610701846106fc600261061d565b84600514801561079f575060018310155b80156107ac575060128311155b156107bf57610701846106fc600261061d565b8460061480156107d0575060138310155b80156107dd575060248311155b156107f3576107f0846106fc600261061d565b90505b949350505050565b600080516020610e9c83398151915254604051639cd07acb60e01b8152600091600080516020610ebc833981519152916001600160a01b0390911690639cd07acb9061084d9087908790600401610db8565b6020604051808303816000875af115801561086c573d6000803e3d6000fd5b505050506040513d601f19601f820116820180604052508101906107f39190610dcc565b60008082156108a45750600160f81b6108a8565b5060005b600080516020610e9c8339815191525460405163022f65e760e31b8152600080516020610ebc833981519152916001600160a01b03169063117b2f38906108f790899089908790600401610de5565b6020604051808303816000875af1158015610916573d6000803e3d6000fd5b505050506040513d601f19601f8201168201806040525081019061093a9190610dcc565b9695505050505050565b6000600080516020610ebc8339815191528054604051635ca4b5b160e11b8152600481018690526001600160a01b03858116602483015292935091169063b9496b6290604401600060405180830381600087803b1580156109a457600080fd5b505af11580156109b8573d6000803e3d6000fd5b50505050505050565b600080516020610e9c8339815191525460405163196d0b9b60e01b8152600091600080516020610ebc833981519152916001600160a01b039091169063196d0b9b90610a17908890339089908990600401610e05565b6020604051808303816000875af1158015610a36573d6000803e3d6000fd5b505050506040513d601f19601f82011682018060405250810190610a5a9190610dcc565b8154604051630f8e573b60e21b8152600481018390523360248201529193506001600160a01b031690633e395cec90604401600060405180830381600087803b158015610aa657600080fd5b505af1158015610aba573d6000803e3d6000fd5b50505050509392505050565b600080600080516020610ebc83398151915280546040516382027b6d60e01b8152600481018790526001600160a01b0386811660248301529293509116906382027b6d90604401602060405180830381865afa158015610b2a573d6000803e3d6000fd5b505050506040513d601f19601f820116820180604052508101906107f39190610e79565b6000808215610b625750600160f81b610b66565b5060005b600080516020610e9c833981519152546040516303056db360e31b8152600080516020610ebc833981519152916001600160a01b03169063182b6d98906108f790899089908790600401610de5565b600082610bc957610bc6600061061d565b92505b81610bdb57610bd8600061061d565b91505b61066683836000806000600080516020610e9c83398151915254604051630afe14ad60e31b8152600080516020610ebc833981519152916001600160a01b0316906357f0a568906108f790899089908790600401610de5565b60008060008060408587031215610c4a57600080fd5b843567ffffffffffffffff80821115610c6257600080fd5b818701915087601f830112610c7657600080fd5b813581811115610c8557600080fd5b8860208260061b8501011115610c9a57600080fd5b602092830196509450908601359080821115610cb557600080fd5b818701915087601f830112610cc957600080fd5b813581811115610cd857600080fd5b886020828501011115610cea57600080fd5b95989497505060200194505050565b600060208284031215610d0b57600080fd5b81356001600160a01b038116811461066657600080fd5b634e487b7160e01b600052601160045260246000fd5b818103818111156105f9576105f9610d22565b634e487b7160e01b600052603260045260246000fd5b600082610d7e57634e487b7160e01b600052601260045260246000fd5b500690565b808201808211156105f9576105f9610d22565b60548110610db457634e487b7160e01b600052602160045260246000fd5b9052565b828152604081016106666020830184610d96565b600060208284031215610dde57600080fd5b5051919050565b92835260208301919091526001600160f81b031916604082015260600190565b8481526000602060018060a01b038616602084015260806040840152845180608085015260005b81811015610e485786810183015185820160a001528201610e2c565b50600060a0828601015260a0601f19601f83011685010192505050610e706060830184610d96565b95945050505050565b600060208284031215610e8b57600080fd5b8151801515811461066657600080fdfe9e7b61f58c47dc699ac88507c4f5bb9f121c03808c5676a8078fe583e46497019e7b61f58c47dc699ac88507c4f5bb9f121c03808c5676a8078fe583e4649700a264697066735822122032908f1a8ccf16ec5ec8df5942adc4f170433e30e7fa747e2eace5471810621764736f6c63430008180033",
  "linkReferences": {},
  "deployedLinkReferences": {}
}