{
  "_format": "hh-sol-artifact-1",
  "contractName": "FHERoulette",
  "sourceName": "contracts/FHERoulette.sol",
  "abi": [
    {
      "inputs": [],
      "stateMutability": "nonpayable",
      "type": "constructor"
    },
    {
      "inputs": [],
      "name": "ZamaProtocolUnsupported",
      "type": "error"
    },
    {
      "anonymous": false,
      "inputs": [
        {
          "indexed": false,
          "internalType": "euint8",
          "name": "winningNumber",
          "type": "bytes32"
        },
        {
          "indexed": false,
          "internalType": "euint32",
          "name": "winnings",
          "type": "bytes32"
        },
        {
          "indexed": false,
          "internalType": "euint32",
          "name": "newBalance",
          "type": "bytes32"
        }
      ],
      "name": "GamePlayed",
      "type": "event"
    },
    {
      "inputs": [],
      "name": "confidentialProtocolId",
      "outputs": [
        {
          "internalType": "uint256",
          "name": "",
          "type": "uint256"
        }
      ],
      "stateMutability": "view",
      "type": "function"
    },
    {
      "inputs": [],
      "name": "finalizeGame",
      "outputs": [],
      "stateMutability": "nonpayable",
      "type": "function"
    },
    {
      "inputs": [
        {
          "internalType": "address",
          "name": "user",
          "type": "address"
        }
      ],
      "name": "getBalance",
      "outputs": [
        {
          "internalType": "euint32",
          "name": "",
          "type": "bytes32"
        }
      ],
      "stateMutability": "view",
      "type": "function"
    },
    {
      "inputs": [
        {
          "internalType": "address",
          "name": "user",
          "type": "address"
        }
      ],
      "name": "getLastWinningNumber",
      "outputs": [
        {
          "internalType": "euint8",
          "name": "",
          "type": "bytes32"
        }
      ],
      "stateMutability": "view",
      "type": "function"
    },
    {
      "inputs": [
        {
          "internalType": "address",
          "name": "user",
          "type": "address"
        }
      ],
      "name": "getNextClaimTime",
      "outputs": [
        {
          "internalType": "uint256",
          "name": "",
          "type": "uint256"
        }
      ],
      "stateMutability": "view",
      "type": "function"
    },
    {
      "inputs": [],
      "name": "mintDemoBalance",
      "outputs": [],
      "stateMutability": "nonpayable",
      "type": "function"
    },
    {
      "inputs": [],
      "name": "owner",
      "outputs": [
        {
          "internalType": "address",
          "name": "",
          "type": "address"
        }
      ],
      "stateMutability": "view",
      "type": "function"
    },
    {
      "inputs": [
        {
          "internalType": "uint256[]",
          "name": "betIds",
          "type": "uint256[]"
        },
        {
          "internalType": "externalEuint32[]",
          "name": "encryptedAmounts",
          "type": "bytes32[]"
        },
        {
          "internalType": "bytes",
          "name": "inputProof",
          "type": "bytes"
        }
      ],
      "name": "play",
      "outputs": [],
      "stateMutability": "nonpayable",
      "type": "function"
    }
  ],
  "bytecode": "0x60806040523480156200001157600080fd5b50620000c962000020620000e1565b80517f9e7b61f58c47dc699ac88507c4f5bb9f121c03808c5676a8078fe583e464970080546001600160a01b03199081166001600160a01b039384161790915560208301517f9e7b61f58c47dc699ac88507c4f5bb9f121c03808c5676a8078fe583e46497018054831691841691909117905560408301517f9e7b61f58c47dc699ac88507c4f5bb9f121c03808c5676a8078fe583e46497028054909216921691909117905550565b600480546001600160a01b0319163317905562000257565b6040805160608101825260008082526020820181905291810191909152466001036200013d5750604080516060808201835260008083526020808401829052928401819052835191820184528082529181018290529182015290565b4662aa36a703620001be5750604080516060808201835260008083526020808401829052928401528251908101835273f0ffdc93b7e186bc2f8cb3daa75d86d1930a433d81527392c920834ec8941d2c77d188936e1f7a6f49c1279181019190915273be0e383937d564d7ff0bc3b46c51f0bf8d5c311a9181019190915290565b46617a69036200023e575060408051606080820183526000808352602080840182905292840152825190810183527350157cffd6bbfa2dece204a89ec419c23ef5755d815273e3a9105a3a932253a70f126eb1e3b589c643dd249181019190915273901f8942346f7ab3a01f6d7613119bca447bb0309181019190915290565b6040516373cac13b60e01b815260040160405180910390fd5b611d8080620002676000396000f3fe608060405234801561001057600080fd5b50600436106100885760003560e01c8063a68a5de81161005b578063a68a5de8146100f0578063b03b203014610103578063c41df9f21461010b578063f8b2cb4f1461011e57600080fd5b80634e0d9a5d1461008d5780638927b030146100975780638da5cb5b146100b257806393c30c0f146100dd575b600080fd5b610095610147565b005b61009f610212565b6040519081526020015b60405180910390f35b6004546100c5906001600160a01b031681565b6040516001600160a01b0390911681526020016100a9565b61009f6100eb366004611a3a565b610221565b61009f6100fe366004611a3a565b61026c565b6100956102e2565b610095610119366004611aaf565b61034c565b61009f61012c366004611a3a565b6001600160a01b031660009081526020819052604090205490565b3360009081526001602052604090205462015180906101669042611b8b565b10156101a45760405162461bcd60e51b81526020600482015260086024820152670aec2d2e8406468d60c31b60448201526064015b60405180910390fd5b60006101b06064610514565b336000908152602081905260409020549091506101cd908261052d565b3360009081526020818152604080832093845560018252822042905552546101f49061055f565b503360008181526020819052604090205461020e9161056f565b5050565b600061021c610582565b905090565b6001600160a01b03811660009081526001602052604081205481906102499062015180611b9e565b905080421061025b5750600092915050565b6102654282611b8b565b9392505050565b6001600160a01b03811660009081526003602052604081205460ff166102c65760405162461bcd60e51b815260206004820152600f60248201526e4e6f2067616d652070656e64696e6760881b604482015260640161019b565b506001600160a01b031660009081526002602052604090205490565b3360009081526003602052604090205460ff166103335760405162461bcd60e51b815260206004820152600f60248201526e4e6f2067616d652070656e64696e6760881b604482015260640161019b565b336000908152600360205260409020805460ff19169055565b84831461038c5760405162461bcd60e51b815260206004820152600e60248201526d092dce0eae840dad2e6dac2e8c6d60931b604482015260640161019b565b60006103a06103996105b9565b60256105c5565b905060006103ae6000610514565b905060006103bc6000610514565b905060005b8881101561046e5760006104238989848181106103e0576103e0611bb1565b9050602002013588888080601f0160208091040260200160405190810160405280939291908181526020018383808284376000920191909152506105e692505050565b905061042f838261052d565b925060006104568c8c8581811061044857610448611bb1565b9050602002013583886105f4565b9050610462858261052d565b945050506001016103c1565b5033600090815260208190526040902054610489818361081b565b9050610495818461052d565b90506104a1813361056f565b506104ab8161055f565b506104b58461084d565b50336000908152602081815260409182902083905581518681529081018590529081018290527f0c0a1b5094260173840e23769f5eeef3c9db84bb005967ce75720fa508f9b8af9060600160405180910390a150505050505050505050565b60006105278263ffffffff166004610858565b92915050565b6000826105415761053e6000610514565b92505b81610553576105506000610514565b91505b610265838360006108f5565b600061056b82306109a9565b5090565b600061057b83836109a9565b5090919050565b6000466001036105925750600190565b4662aa36a7036105a3575061271190565b46617a69036105b3575060001990565b50600090565b600061021c6002610a23565b6000826105d9576105d66000610ab6565b92505b6102658360ff8416610ac6565b600061026583836004610b61565b6000806106016000610514565b9050846001036106475760006106208461061b6000610ab6565b610c66565b905061063f816106306024610514565b61063a6000610514565b610c98565b915050610808565b600285101580156106595750600d8511155b156106a057600061066b600187611b8b565b610676906003611bc7565b905060006106878561061b84610ab6565b9050610697816106306024610514565b92505050610808565b600f85101580156106b25750601a8511155b156106db57600060016106c6600e88611b8b565b6106d1906003611bc7565b6106769190611b8b565b601c85101580156106ed575060278511155b1561070157600060026106c6601b88611b8b565b84600e0361071c5761071583600380610cdb565b9050610808565b84601b03610731576107158360026003610cdb565b84602803610746576107158360016003610cdb565b8460290361075d57610715836001600c6003610fb0565b84602a036107745761071583600d60186003610fb0565b84602b0361078b5761071583601960246003610fb0565b84602c036107a25761071583600160126002610fb0565b84602d036107b557610715836002610ffb565b84602e036107c857610715836002611172565b84602f036107db576107158360026112bd565b846030036107ee576107158360026113e7565b846031036108085761080583601360246002610fb0565b90505b6108128482611506565b95945050505050565b60008261082f5761082c6000610514565b92505b816108415761083e6000610514565b91505b61026583836000611538565b600061056b8261159f565b600080516020611d0b83398151915254604051639cd07acb60e01b8152600091600080516020611d2b833981519152916001600160a01b0390911690639cd07acb906108aa9087908790600401611c00565b6020604051808303816000875af11580156108c9573d6000803e3d6000fd5b505050506040513d601f19601f820116820180604052508101906108ed9190611c14565b949350505050565b60008082156109095750600160f81b61090d565b5060005b600080516020611d0b8339815191525460405163022f65e760e31b8152600080516020611d2b833981519152916001600160a01b03169063117b2f389061095c90899089908790600401611c2d565b6020604051808303816000875af115801561097b573d6000803e3d6000fd5b505050506040513d601f19601f8201168201806040525081019061099f9190611c14565b9695505050505050565b600080516020611d2b8339815191528054604051635ca4b5b160e11b8152600481018590526001600160a01b0384811660248301529091169063b9496b62906044015b600060405180830381600087803b158015610a0657600080fd5b505af1158015610a1a573d6000803e3d6000fd5b50505050505050565b600080516020611d0b83398151915254604051636baeb74560e11b8152600091600080516020611d2b833981519152916001600160a01b039091169063d75d6e8a90610a73908690600401611c4d565b6020604051808303816000875af1158015610a92573d6000803e3d6000fd5b505050506040513d601f19601f820116820180604052508101906102659190611c14565b60006105278260ff166002610858565b600080516020611d0b833981519152546040516367a68c5560e11b8152600091600160f81b91600080516020611d2b833981519152916001600160a01b03169063cf4d18aa90610b1e90889088908790600401611c2d565b6020604051808303816000875af1158015610b3d573d6000803e3d6000fd5b505050506040513d601f19601f820116820180604052508101906108129190611c14565b600080516020611d0b8339815191525460405163045fc19560e11b8152600091600080516020611d2b833981519152916001600160a01b03909116906308bf832a90610bb7908890339089908990600401611c5b565b6020604051808303816000875af1158015610bd6573d6000803e3d6000fd5b505050506040513d601f19601f82011682018060405250810190610bfa9190611c14565b8154604051630f8e573b60e21b8152600481018390523360248201529193506001600160a01b031690633e395cec90604401600060405180830381600087803b158015610c4657600080fd5b505af1158015610c5a573d6000803e3d6000fd5b50505050509392505050565b600082610c7a57610c776000610ab6565b92505b81610c8c57610c896000610ab6565b91505b61026583836000611620565b600083610cac57610ca96000611687565b93505b82610cbe57610cbb6000610514565b92505b81610cd057610ccd6000610514565b91505b6108ed8484846116a5565b600080610cec8561061b6000610ab6565b90506000610cf982611713565b905060008560ff16600303610de057610d92610d51610d32610d1f8a61061b6003610ab6565b610d2d8b61061b6006610ab6565b61171e565b610d2d610d438b61061b6009610ab6565b610d2d8c61061b600c610ab6565b610d2d610d73610d658b61061b600f610ab6565b610d2d8c61061b6012610ab6565b610d2d610d848c61061b6015610ab6565b610d2d8d61061b6018610ab6565b9050610dd981610d2d610dba610dac8b61061b601b610ab6565b610d2d8c61061b601e610ab6565b610d2d610dcb8c61061b6021610ab6565b610d2d8d61061b6024610ab6565b9050610f86565b8560ff16600203610eb757610e70610e2f610e10610e028a61061b6002610ab6565b610d2d8b61061b6005610ab6565b610d2d610e218b61061b6008610ab6565b610d2d8c61061b600b610ab6565b610d2d610e51610e438b61061b600e610ab6565b610d2d8c61061b6011610ab6565b610d2d610e628c61061b6014610ab6565b610d2d8d61061b6017610ab6565b9050610dd981610d2d610e98610e8a8b61061b601a610ab6565b610d2d8c61061b601d610ab6565b610d2d610ea98c61061b6020610ab6565b610d2d8d61061b6023610ab6565b610f3c610efb610edc610ece8a61061b6001610ab6565b610d2d8b61061b6004610ab6565b610d2d610eed8b61061b6007610ab6565b610d2d8c61061b600a610ab6565b610d2d610f1d610f0f8b61061b600d610ab6565b610d2d8c61061b6010610ab6565b610d2d610f2e8c61061b6013610ab6565b610d2d8d61061b6016610ab6565b9050610f8381610d2d610f64610f568b61061b6019610ab6565b610d2d8c61061b601c610ab6565b610d2d610f758c61061b601f610ab6565b610d2d8d61061b6022610ab6565b90505b6000610f928383611750565b9050610fa4816106308860ff16610514565b98975050505050505050565b600080610fc586610fc087610ab6565b611782565b90506000610fdb87610fd687610ab6565b6117b4565b90506000610fe98383611750565b9050610fa4816106308760ff16610514565b60008061100c8461061b6000610ab6565b9050600061101982611713565b905060006110946110616110426110348961061b6002610ab6565b610d2d8a61061b6004610ab6565b610d2d6110538a61061b6006610ab6565b610d2d8b61061b6008610ab6565b610d2d6110836110758a61061b600a610ab6565b610d2d8b61061b600c610ab6565b610d2d610f0f8b61061b600e610ab6565b90506110db81610d2d6110bc6110ae8a61061b6012610ab6565b610d2d8b61061b6014610ab6565b610d2d6110cd8b61061b6016610ab6565b610d2d8c61061b6018610ab6565b905061112281610d2d6111036110f58a61061b601a610ab6565b610d2d8b61061b601c610ab6565b610d2d6111148b61061b601e610ab6565b610d2d8c61061b6020610ab6565b905061114781610d2d6111398961061b6022610ab6565b610d2d8a61061b6024610ab6565b905060006111558383611750565b9050611167816106308860ff16610514565b979650505050505050565b6000806111fa6111b961119a61118c8761061b6001610ab6565b610d2d8861061b6003610ab6565b610d2d6111ab8861061b6005610ab6565b610d2d8961061b6007610ab6565b610d2d6111db6111cd8861061b6009610ab6565b610d2d8961061b600c610ab6565b610d2d6111ec8961061b600e610ab6565b610d2d8a61061b6010610ab6565b905060006112836112426112236112158861061b6012610ab6565b610d2d8961061b6013610ab6565b610d2d6112348961061b6015610ab6565b610d2d8a61061b6017610ab6565b610d2d6112646112568961061b6019610ab6565b610d2d8a61061b601b610ab6565b610d2d6112758a61061b601e610ab6565b610d2d8b61061b6020610ab6565b905060006112a66112988761061b6022610ab6565b610d2d8861061b6024610ab6565b905060006111556112b7858561171e565b8361171e565b6000806112ce8461061b6000610ab6565b905060006112db82611713565b905060006113376112f66110426110348961061b6002610ab6565b610d2d61131861130a8a61061b600a610ab6565b610d2d8b61061b600b610ab6565b610d2d6113298b61061b600d610ab6565b610d2d8c61061b600f610ab6565b905060006113856113526110bc6110ae8a61061b6011610ab6565b610d2d611366610f568b61061b601a610ab6565b610d2d6113778c61061b601d610ab6565b610d2d8d61061b601f610ab6565b905060006113a861139a8961061b6021610ab6565b610d2d8a61061b6023610ab6565b905060006113b96112b7858561171e565b905060006113c78683611750565b90506113d9816106308b60ff16610514565b9a9950505050505050505050565b6000806113f88461061b6000610ab6565b9050600061140582611713565b9050600061146161144d61142e6114208961061b6001610ab6565b610d2d8a61061b6003610ab6565b610d2d61143f8a61061b6005610ab6565b610d2d8b61061b6007610ab6565b610d2d61131861130a8a61061b6009610ab6565b90506114a881610d2d61148961147b8a61061b6011610ab6565b610d2d8b61061b6013610ab6565b610d2d61149a8b61061b6015610ab6565b610d2d8c61061b6017610ab6565b90506114ef81610d2d6114d06114c28a61061b6019610ab6565b610d2d8b61061b601b610ab6565b610d2d6114e18b61061b601d610ab6565b610d2d8c61061b601f610ab6565b905061114781610d2d61139a8961061b6021610ab6565b60008261151a576115176000610514565b92505b8161152c576115296000610514565b91505b610265838360006117e6565b600080821561154c5750600160f81b611550565b5060005b600080516020611d0b833981519152546040516303056db360e31b8152600080516020611d2b833981519152916001600160a01b03169063182b6d989061095c90899089908790600401611c2d565b604080516001808252818301909252600080516020611d2b83398151915291600091906020808301908036833701905050905082816000815181106115e6576115e6611bb1565b60209081029190910101528154604051637d6e912360e11b81526001600160a01b039091169063fadd2246906109ec908490600401611cc6565b60008082156116345750600160f81b611638565b5060005b600080516020611d0b8339815191525460405163f77f3f1d60e01b8152600080516020611d2b833981519152916001600160a01b03169063f77f3f1d9061095c90899089908790600401611c2d565b60006105278261169857600061169b565b60015b60ff166000610858565b600080600080516020611d2b8339815191526001810154604051637702dcff60e01b81526004810188905260248101879052604481018690529192506001600160a01b031690637702dcff906064016020604051808303816000875af1158015610b3d573d6000803e3d6000fd5b60006105278261184d565b6000826117325761172f6000611687565b92505b81611744576117416000611687565b91505b6102658383600061189e565b600082611764576117616000611687565b92505b81611776576117736000611687565b91505b61026583836000611905565b600082611796576117936000610ab6565b92505b816117a8576117a56000610ab6565b91505b6102658383600061196c565b6000826117c8576117c56000610ab6565b92505b816117da576117d76000610ab6565b91505b610265838360006119d3565b60008082156117fa5750600160f81b6117fe565b5060005b600080516020611d0b83398151915254604051630afe14ad60e31b8152600080516020611d2b833981519152916001600160a01b0316906357f0a5689061095c90899089908790600401611c2d565b600080516020611d0b83398151915254604051630f51ccfb60e41b815260048101839052600091600080516020611d2b833981519152916001600160a01b039091169063f51ccfb090602401610a73565b60008082156118b25750600160f81b6118b6565b5060005b600080516020611d0b833981519152546040516363a2db2960e01b8152600080516020611d2b833981519152916001600160a01b0316906363a2db299061095c90899089908790600401611c2d565b60008082156119195750600160f81b61191d565b5060005b600080516020611d0b8339815191525460405163d99882d560e01b8152600080516020611d2b833981519152916001600160a01b03169063d99882d59061095c90899089908790600401611c2d565b60008082156119805750600160f81b611984565b5060005b600080516020611d0b83398151915254604051631391547f60e01b8152600080516020611d2b833981519152916001600160a01b031690631391547f9061095c90899089908790600401611c2d565b60008082156119e75750600160f81b6119eb565b5060005b600080516020611d0b83398151915254604051631d44e90160e21b8152600080516020611d2b833981519152916001600160a01b031690637513a4049061095c90899089908790600401611c2d565b600060208284031215611a4c57600080fd5b81356001600160a01b038116811461026557600080fd5b60008083601f840112611a7557600080fd5b50813567ffffffffffffffff811115611a8d57600080fd5b6020830191508360208260051b8501011115611aa857600080fd5b9250929050565b60008060008060008060608789031215611ac857600080fd5b863567ffffffffffffffff80821115611ae057600080fd5b611aec8a838b01611a63565b90985096506020890135915080821115611b0557600080fd5b611b118a838b01611a63565b90965094506040890135915080821115611b2a57600080fd5b818901915089601f830112611b3e57600080fd5b813581811115611b4d57600080fd5b8a6020828501011115611b5f57600080fd5b6020830194508093505050509295509295509295565b634e487b7160e01b600052601160045260246000fd5b8181038181111561052757610527611b75565b8082018082111561052757610527611b75565b634e487b7160e01b600052603260045260246000fd5b808202811582820484141761052757610527611b75565b60548110611bfc57634e487b7160e01b600052602160045260246000fd5b9052565b828152604081016102656020830184611bde565b600060208284031215611c2657600080fd5b5051919050565b92835260208301919091526001600160f81b031916604082015260600190565b602081016105278284611bde565b8481526000602060018060a01b038616602084015260806040840152845180608085015260005b81811015611c9e5786810183015185820160a001528201611c82565b50600060a0828601015260a0601f19601f830116850101925050506108126060830184611bde565b6020808252825182820181905260009190848201906040850190845b81811015611cfe57835183529284019291840191600101611ce2565b5090969550505050505056fe9e7b61f58c47dc699ac88507c4f5bb9f121c03808c5676a8078fe583e46497019e7b61f58c47dc699ac88507c4f5bb9f121c03808c5676a8078fe583e4649700a264697066735822122004e93d9e011bb108788139ecb529e917a1ba47a1c5f0c0f0223ac867e5fbacd964736f6c63430008180033",
  "linkReferences": {},
  "deployedLinkReferences": {}
}