{
  "_format": "hh-sol-artifact-1",
  "contractName": "FHERoulette",
  "sourceName": "contracts/FHERoulette.sol",
  "abi": [
    {
      "inputs": [],
      "stateMutability": "nonpayable",
      "type": "constructor"
    },
    {
      "inputs": [],
      "name": "ZamaProtocolUnsupported",
      "type": "error"
    },
    {
      "anonymous": false,
      "inputs": [
        {
          "indexed": false,
          "internalType": "euint8",
          "name": "winningNumber",
          "type": "bytes32"
        },
        {
          "indexed": false,
          "internalType": "euint32",
          "name": "winnings",
          "type": "bytes32"
        },
        {
          "indexed": false,
          "internalType": "euint32",
          "name": "newBalance",
          "type": "bytes32"
        }
      ],
      "name": "GamePlayed",
      "type": "event"
    },
    {
      "inputs": [],
      "name": "confidentialProtocolId",
      "outputs": [
        {
          "internalType": "uint256",
          "name": "",
          "type": "uint256"
        }
      ],
      "stateMutability": "view",
      "type": "function"
    },
    {
      "inputs": [],
      "name": "finalizeGame",
      "outputs": [],
      "stateMutability": "nonpayable",
      "type": "function"
    },
    {
      "inputs": [
        {
          "internalType": "address",
          "name": "user",
          "type": "address"
        }
      ],
      "name": "getBalance",
      "outputs": [
        {
          "internalType": "euint32",
          "name": "",
          "type": "bytes32"
        }
      ],
      "stateMutability": "view",
      "type": "function"
    },
    {
      "inputs": [
        {
          "internalType": "address",
          "name": "user",
          "type": "address"
        }
      ],
      "name": "getLastWinningNumber",
      "outputs": [
        {
          "internalType": "euint8",
          "name": "",
          "type": "bytes32"
        }
      ],
      "stateMutability": "view",
      "type": "function"
    },
    {
      "inputs": [
        {
          "internalType": "address",
          "name": "user",
          "type": "address"
        }
      ],
      "name": "getNextClaimTime",
      "outputs": [
        {
          "internalType": "uint256",
          "name": "",
          "type": "uint256"
        }
      ],
      "stateMutability": "view",
      "type": "function"
    },
    {
      "inputs": [],
      "name": "mintDemoBalance",
      "outputs": [],
      "stateMutability": "nonpayable",
      "type": "function"
    },
    {
      "inputs": [],
      "name": "owner",
      "outputs": [
        {
          "internalType": "address",
          "name": "",
          "type": "address"
        }
      ],
      "stateMutability": "view",
      "type": "function"
    },
    {
      "inputs": [
        {
          "internalType": "uint256[]",
          "name": "betIds",
          "type": "uint256[]"
        },
        {
          "internalType": "externalEuint32[]",
          "name": "encryptedAmounts",
          "type": "bytes32[]"
        },
        {
          "internalType": "bytes",
          "name": "inputProof",
          "type": "bytes"
        }
      ],
      "name": "play",
      "outputs": [],
      "stateMutability": "nonpayable",
      "type": "function"
    }
  ],
  "bytecode": "0x60806040523480156200001157600080fd5b50620000c962000020620000e1565b80517f9e7b61f58c47dc699ac88507c4f5bb9f121c03808c5676a8078fe583e464970080546001600160a01b03199081166001600160a01b039384161790915560208301517f9e7b61f58c47dc699ac88507c4f5bb9f121c03808c5676a8078fe583e46497018054831691841691909117905560408301517f9e7b61f58c47dc699ac88507c4f5bb9f121c03808c5676a8078fe583e46497028054909216921691909117905550565b600480546001600160a01b0319163317905562000257565b6040805160608101825260008082526020820181905291810191909152466001036200013d5750604080516060808201835260008083526020808401829052928401819052835191820184528082529181018290529182015290565b4662aa36a703620001be5750604080516060808201835260008083526020808401829052928401528251908101835273f0ffdc93b7e186bc2f8cb3daa75d86d1930a433d81527392c920834ec8941d2c77d188936e1f7a6f49c1279181019190915273be0e383937d564d7ff0bc3b46c51f0bf8d5c311a9181019190915290565b46617a69036200023e575060408051606080820183526000808352602080840182905292840152825190810183527350157cffd6bbfa2dece204a89ec419c23ef5755d815273e3a9105a3a932253a70f126eb1e3b589c643dd249181019190915273901f8942346f7ab3a01f6d7613119bca447bb0309181019190915290565b6040516373cac13b60e01b815260040160405180910390fd5b611d9080620002676000396000f3fe608060405234801561001057600080fd5b50600436106100885760003560e01c8063a68a5de81161005b578063a68a5de8146100f0578063b03b203014610103578063c41df9f21461010b578063f8b2cb4f1461011e57600080fd5b80634e0d9a5d1461008d5780638927b030146100975780638da5cb5b146100b257806393c30c0f146100dd575b600080fd5b610095610147565b005b61009f610212565b6040519081526020015b60405180910390f35b6004546100c5906001600160a01b031681565b6040516001600160a01b0390911681526020016100a9565b61009f6100eb366004611a4a565b610221565b61009f6100fe366004611a4a565b61026c565b6100956102e2565b610095610119366004611abf565b61034c565b61009f61012c366004611a4a565b6001600160a01b031660009081526020819052604090205490565b3360009081526001602052604090205462015180906101669042611b9b565b10156101a45760405162461bcd60e51b81526020600482015260086024820152670aec2d2e8406468d60c31b60448201526064015b60405180910390fd5b60006101b06064610524565b336000908152602081905260409020549091506101cd908261053d565b3360009081526020818152604080832093845560018252822042905552546101f49061056f565b503360008181526020819052604090205461020e9161057f565b5050565b600061021c610592565b905090565b6001600160a01b03811660009081526001602052604081205481906102499062015180611bae565b905080421061025b5750600092915050565b6102654282611b9b565b9392505050565b6001600160a01b03811660009081526003602052604081205460ff166102c65760405162461bcd60e51b815260206004820152600f60248201526e4e6f2067616d652070656e64696e6760881b604482015260640161019b565b506001600160a01b031660009081526002602052604090205490565b3360009081526003602052604090205460ff166103335760405162461bcd60e51b815260206004820152600f60248201526e4e6f2067616d652070656e64696e6760881b604482015260640161019b565b336000908152600360205260409020805460ff19169055565b84831461038c5760405162461bcd60e51b815260206004820152600e60248201526d092dce0eae840dad2e6dac2e8c6d60931b604482015260640161019b565b60006103a06103996105c9565b60256105d5565b905060006103ae6000610524565b905060006103bc6000610524565b905060005b8881101561046e5760006104238989848181106103e0576103e0611bc1565b9050602002013588888080601f0160208091040260200160405190810160405280939291908181526020018383808284376000920191909152506105f692505050565b905061042f838261053d565b925060006104568c8c8581811061044857610448611bc1565b905060200201358388610604565b9050610462858261053d565b945050506001016103c1565b5033600090815260208190526040902054610489908261082b565b3360009081526020819052604090208190556104a5908361053d565b3360008181526020819052604090208290556104c1919061057f565b506104cb8361085d565b5033600090815260208181526040918290205482518681529182018590528183015290517f0c0a1b5094260173840e23769f5eeef3c9db84bb005967ce75720fa508f9b8af9181900360600190a1505050505050505050565b60006105378263ffffffff166004610868565b92915050565b6000826105515761054e6000610524565b92505b81610563576105606000610524565b91505b61026583836000610905565b600061057b82306109b9565b5090565b600061058b83836109b9565b5090919050565b6000466001036105a25750600190565b4662aa36a7036105b3575061271190565b46617a69036105c3575060001990565b50600090565b600061021c6002610a33565b6000826105e9576105e66000610ac6565b92505b6102658360ff8416610ad6565b600061026583836004610b71565b6000806106116000610524565b9050846001036106575760006106308461062b6000610ac6565b610c76565b905061064f816106406024610524565b61064a6000610524565b610ca8565b915050610818565b600285101580156106695750600d8511155b156106b057600061067b600187611b9b565b610686906003611bd7565b905060006106978561062b84610ac6565b90506106a7816106406024610524565b92505050610818565b600f85101580156106c25750601a8511155b156106eb57600060016106d6600e88611b9b565b6106e1906003611bd7565b6106869190611b9b565b601c85101580156106fd575060278511155b1561071157600060026106d6601b88611b9b565b84600e0361072c5761072583600380610ceb565b9050610818565b84601b03610741576107258360026003610ceb565b84602803610756576107258360016003610ceb565b8460290361076d57610725836001600c6003610fc0565b84602a036107845761072583600d60186003610fc0565b84602b0361079b5761072583601960246003610fc0565b84602c036107b25761072583600160126002610fc0565b84602d036107c55761072583600261100b565b84602e036107d857610725836002611182565b84602f036107eb576107258360026112cd565b846030036107fe576107258360026113f7565b846031036108185761081583601360246002610fc0565b90505b6108228482611516565b95945050505050565b60008261083f5761083c6000610524565b92505b816108515761084e6000610524565b91505b61026583836000611548565b600061057b826115af565b600080516020611d1b83398151915254604051639cd07acb60e01b8152600091600080516020611d3b833981519152916001600160a01b0390911690639cd07acb906108ba9087908790600401611c10565b6020604051808303816000875af11580156108d9573d6000803e3d6000fd5b505050506040513d601f19601f820116820180604052508101906108fd9190611c24565b949350505050565b60008082156109195750600160f81b61091d565b5060005b600080516020611d1b8339815191525460405163022f65e760e31b8152600080516020611d3b833981519152916001600160a01b03169063117b2f389061096c90899089908790600401611c3d565b6020604051808303816000875af115801561098b573d6000803e3d6000fd5b505050506040513d601f19601f820116820180604052508101906109af9190611c24565b9695505050505050565b600080516020611d3b8339815191528054604051635ca4b5b160e11b8152600481018590526001600160a01b0384811660248301529091169063b9496b62906044015b600060405180830381600087803b158015610a1657600080fd5b505af1158015610a2a573d6000803e3d6000fd5b50505050505050565b600080516020611d1b83398151915254604051636baeb74560e11b8152600091600080516020611d3b833981519152916001600160a01b039091169063d75d6e8a90610a83908690600401611c5d565b6020604051808303816000875af1158015610aa2573d6000803e3d6000fd5b505050506040513d601f19601f820116820180604052508101906102659190611c24565b60006105378260ff166002610868565b600080516020611d1b833981519152546040516367a68c5560e11b8152600091600160f81b91600080516020611d3b833981519152916001600160a01b03169063cf4d18aa90610b2e90889088908790600401611c3d565b6020604051808303816000875af1158015610b4d573d6000803e3d6000fd5b505050506040513d601f19601f820116820180604052508101906108229190611c24565b600080516020611d1b8339815191525460405163045fc19560e11b8152600091600080516020611d3b833981519152916001600160a01b03909116906308bf832a90610bc7908890339089908990600401611c6b565b6020604051808303816000875af1158015610be6573d6000803e3d6000fd5b505050506040513d601f19601f82011682018060405250810190610c0a9190611c24565b8154604051630f8e573b60e21b8152600481018390523360248201529193506001600160a01b031690633e395cec90604401600060405180830381600087803b158015610c5657600080fd5b505af1158015610c6a573d6000803e3d6000fd5b50505050509392505050565b600082610c8a57610c876000610ac6565b92505b81610c9c57610c996000610ac6565b91505b61026583836000611630565b600083610cbc57610cb96000611697565b93505b82610cce57610ccb6000610524565b92505b81610ce057610cdd6000610524565b91505b6108fd8484846116b5565b600080610cfc8561062b6000610ac6565b90506000610d0982611723565b905060008560ff16600303610df057610da2610d61610d42610d2f8a61062b6003610ac6565b610d3d8b61062b6006610ac6565b61172e565b610d3d610d538b61062b6009610ac6565b610d3d8c61062b600c610ac6565b610d3d610d83610d758b61062b600f610ac6565b610d3d8c61062b6012610ac6565b610d3d610d948c61062b6015610ac6565b610d3d8d61062b6018610ac6565b9050610de981610d3d610dca610dbc8b61062b601b610ac6565b610d3d8c61062b601e610ac6565b610d3d610ddb8c61062b6021610ac6565b610d3d8d61062b6024610ac6565b9050610f96565b8560ff16600203610ec757610e80610e3f610e20610e128a61062b6002610ac6565b610d3d8b61062b6005610ac6565b610d3d610e318b61062b6008610ac6565b610d3d8c61062b600b610ac6565b610d3d610e61610e538b61062b600e610ac6565b610d3d8c61062b6011610ac6565b610d3d610e728c61062b6014610ac6565b610d3d8d61062b6017610ac6565b9050610de981610d3d610ea8610e9a8b61062b601a610ac6565b610d3d8c61062b601d610ac6565b610d3d610eb98c61062b6020610ac6565b610d3d8d61062b6023610ac6565b610f4c610f0b610eec610ede8a61062b6001610ac6565b610d3d8b61062b6004610ac6565b610d3d610efd8b61062b6007610ac6565b610d3d8c61062b600a610ac6565b610d3d610f2d610f1f8b61062b600d610ac6565b610d3d8c61062b6010610ac6565b610d3d610f3e8c61062b6013610ac6565b610d3d8d61062b6016610ac6565b9050610f9381610d3d610f74610f668b61062b6019610ac6565b610d3d8c61062b601c610ac6565b610d3d610f858c61062b601f610ac6565b610d3d8d61062b6022610ac6565b90505b6000610fa28383611760565b9050610fb4816106408860ff16610524565b98975050505050505050565b600080610fd586610fd087610ac6565b611792565b90506000610feb87610fe687610ac6565b6117c4565b90506000610ff98383611760565b9050610fb4816106408760ff16610524565b60008061101c8461062b6000610ac6565b9050600061102982611723565b905060006110a46110716110526110448961062b6002610ac6565b610d3d8a61062b6004610ac6565b610d3d6110638a61062b6006610ac6565b610d3d8b61062b6008610ac6565b610d3d6110936110858a61062b600a610ac6565b610d3d8b61062b600c610ac6565b610d3d610f1f8b61062b600e610ac6565b90506110eb81610d3d6110cc6110be8a61062b6012610ac6565b610d3d8b61062b6014610ac6565b610d3d6110dd8b61062b6016610ac6565b610d3d8c61062b6018610ac6565b905061113281610d3d6111136111058a61062b601a610ac6565b610d3d8b61062b601c610ac6565b610d3d6111248b61062b601e610ac6565b610d3d8c61062b6020610ac6565b905061115781610d3d6111498961062b6022610ac6565b610d3d8a61062b6024610ac6565b905060006111658383611760565b9050611177816106408860ff16610524565b979650505050505050565b60008061120a6111c96111aa61119c8761062b6001610ac6565b610d3d8861062b6003610ac6565b610d3d6111bb8861062b6005610ac6565b610d3d8961062b6007610ac6565b610d3d6111eb6111dd8861062b6009610ac6565b610d3d8961062b600c610ac6565b610d3d6111fc8961062b600e610ac6565b610d3d8a61062b6010610ac6565b905060006112936112526112336112258861062b6012610ac6565b610d3d8961062b6013610ac6565b610d3d6112448961062b6015610ac6565b610d3d8a61062b6017610ac6565b610d3d6112746112668961062b6019610ac6565b610d3d8a61062b601b610ac6565b610d3d6112858a61062b601e610ac6565b610d3d8b61062b6020610ac6565b905060006112b66112a88761062b6022610ac6565b610d3d8861062b6024610ac6565b905060006111656112c7858561172e565b8361172e565b6000806112de8461062b6000610ac6565b905060006112eb82611723565b905060006113476113066110526110448961062b6002610ac6565b610d3d61132861131a8a61062b600a610ac6565b610d3d8b61062b600b610ac6565b610d3d6113398b61062b600d610ac6565b610d3d8c61062b600f610ac6565b905060006113956113626110cc6110be8a61062b6011610ac6565b610d3d611376610f668b61062b601a610ac6565b610d3d6113878c61062b601d610ac6565b610d3d8d61062b601f610ac6565b905060006113b86113aa8961062b6021610ac6565b610d3d8a61062b6023610ac6565b905060006113c96112c7858561172e565b905060006113d78683611760565b90506113e9816106408b60ff16610524565b9a9950505050505050505050565b6000806114088461062b6000610ac6565b9050600061141582611723565b9050600061147161145d61143e6114308961062b6001610ac6565b610d3d8a61062b6003610ac6565b610d3d61144f8a61062b6005610ac6565b610d3d8b61062b6007610ac6565b610d3d61132861131a8a61062b6009610ac6565b90506114b881610d3d61149961148b8a61062b6011610ac6565b610d3d8b61062b6013610ac6565b610d3d6114aa8b61062b6015610ac6565b610d3d8c61062b6017610ac6565b90506114ff81610d3d6114e06114d28a61062b6019610ac6565b610d3d8b61062b601b610ac6565b610d3d6114f18b61062b601d610ac6565b610d3d8c61062b601f610ac6565b905061115781610d3d6113aa8961062b6021610ac6565b60008261152a576115276000610524565b92505b8161153c576115396000610524565b91505b610265838360006117f6565b600080821561155c5750600160f81b611560565b5060005b600080516020611d1b833981519152546040516303056db360e31b8152600080516020611d3b833981519152916001600160a01b03169063182b6d989061096c90899089908790600401611c3d565b604080516001808252818301909252600080516020611d3b83398151915291600091906020808301908036833701905050905082816000815181106115f6576115f6611bc1565b60209081029190910101528154604051637d6e912360e11b81526001600160a01b039091169063fadd2246906109fc908490600401611cd6565b60008082156116445750600160f81b611648565b5060005b600080516020611d1b8339815191525460405163f77f3f1d60e01b8152600080516020611d3b833981519152916001600160a01b03169063f77f3f1d9061096c90899089908790600401611c3d565b6000610537826116a85760006116ab565b60015b60ff166000610868565b600080600080516020611d3b8339815191526001810154604051637702dcff60e01b81526004810188905260248101879052604481018690529192506001600160a01b031690637702dcff906064016020604051808303816000875af1158015610b4d573d6000803e3d6000fd5b60006105378261185d565b6000826117425761173f6000611697565b92505b81611754576117516000611697565b91505b610265838360006118ae565b600082611774576117716000611697565b92505b81611786576117836000611697565b91505b61026583836000611915565b6000826117a6576117a36000610ac6565b92505b816117b8576117b56000610ac6565b91505b6102658383600061197c565b6000826117d8576117d56000610ac6565b92505b816117ea576117e76000610ac6565b91505b610265838360006119e3565b600080821561180a5750600160f81b61180e565b5060005b600080516020611d1b83398151915254604051630afe14ad60e31b8152600080516020611d3b833981519152916001600160a01b0316906357f0a5689061096c90899089908790600401611c3d565b600080516020611d1b83398151915254604051630f51ccfb60e41b815260048101839052600091600080516020611d3b833981519152916001600160a01b039091169063f51ccfb090602401610a83565b60008082156118c25750600160f81b6118c6565b5060005b600080516020611d1b833981519152546040516363a2db2960e01b8152600080516020611d3b833981519152916001600160a01b0316906363a2db299061096c90899089908790600401611c3d565b60008082156119295750600160f81b61192d565b5060005b600080516020611d1b8339815191525460405163d99882d560e01b8152600080516020611d3b833981519152916001600160a01b03169063d99882d59061096c90899089908790600401611c3d565b60008082156119905750600160f81b611994565b5060005b600080516020611d1b83398151915254604051631391547f60e01b8152600080516020611d3b833981519152916001600160a01b031690631391547f9061096c90899089908790600401611c3d565b60008082156119f75750600160f81b6119fb565b5060005b600080516020611d1b83398151915254604051631d44e90160e21b8152600080516020611d3b833981519152916001600160a01b031690637513a4049061096c90899089908790600401611c3d565b600060208284031215611a5c57600080fd5b81356001600160a01b038116811461026557600080fd5b60008083601f840112611a8557600080fd5b50813567ffffffffffffffff811115611a9d57600080fd5b6020830191508360208260051b8501011115611ab857600080fd5b9250929050565b60008060008060008060608789031215611ad857600080fd5b863567ffffffffffffffff80821115611af057600080fd5b611afc8a838b01611a73565b90985096506020890135915080821115611b1557600080fd5b611b218a838b01611a73565b90965094506040890135915080821115611b3a57600080fd5b818901915089601f830112611b4e57600080fd5b813581811115611b5d57600080fd5b8a6020828501011115611b6f57600080fd5b6020830194508093505050509295509295509295565b634e487b7160e01b600052601160045260246000fd5b8181038181111561053757610537611b85565b8082018082111561053757610537611b85565b634e487b7160e01b600052603260045260246000fd5b808202811582820484141761053757610537611b85565b60548110611c0c57634e487b7160e01b600052602160045260246000fd5b9052565b828152604081016102656020830184611bee565b600060208284031215611c3657600080fd5b5051919050565b92835260208301919091526001600160f81b031916604082015260600190565b602081016105378284611bee565b8481526000602060018060a01b038616602084015260806040840152845180608085015260005b81811015611cae5786810183015185820160a001528201611c92565b50600060a0828601015260a0601f19601f830116850101925050506108226060830184611bee565b6020808252825182820181905260009190848201906040850190845b81811015611d0e57835183529284019291840191600101611cf2565b5090969550505050505056fe9e7b61f58c47dc699ac88507c4f5bb9f121c03808c5676a8078fe583e46497019e7b61f58c47dc699ac88507c4f5bb9f121c03808c5676a8078fe583e4649700a2646970667358221220b87315b8c0ffddedc6b5858796dccf390f0ec2fe37c3d21a9217724e2adee40d64736f6c63430008180033",
  "linkReferences": {},
  "deployedLinkReferences": {}
}